:020000040800F2
:1000000000500020C1110008C9110008CB110008E0
:10001000CD110008CF110008D11100080000000028
:10002000000000000000000000000000D3110008E4
:10003000D511000800000000D7110008D9110008F0
:10004000DB110008DB110008DB110008DB110008E0
:10005000DB110008DB110008DB110008DB110008D0
:10006000DB110008DB110008DB110008DB110008C0
:10007000DB110008DB110008DB110008DB110008B0
:10008000DB110008DB110008DB110008DB110008A0
:10009000DB110008DB110008DB110008DB11000890
:1000A000DB110008DB110008DB110008DB11000880
:1000B000DB110008DB110008DB110008DB11000870
:1000C000DB110008DB110008DB110008DB11000860
:1000D000DB110008DB110008DB110008DB11000850
:1000E000DB110008DB110008DB110008DFF814D079
:1000F0000BF010F90AF08CF80AF0FCF90048004700
:100100008D9D00080050002010B56FF00100F849E7
:1001100009680861F74800F051FF10BD38B5044682
:1001200000BFF548C06940F00100F349C8610846C6
:10013000C06900F00100009000BF0846006940F06F
:10014000010008610846006920F00100086107F01D
:100150007DFE4FF08040E64908600846C460E748ED
:100160000068E749B0FBF1F0401EE149486000211A
:10017000DF480161816003F065FC00BFDC48006876
:10018000C462DB48C46000BFAFF283011C2007F0EB
:1001900059FD1C20012181404209920002F1E02218
:1001A000C2F8001100BFD2480068C06840F00100EA
:1001B000CF490968C860CE4803F082FC38BD88B0DA
:1001C000002007904FF49641CE4809F075FE20229A
:1001D0004021C84800F0A4FC1E21C64800F0A8FC3D
:1001E000C4480690069800F52870C7490860C148C1
:1001F0000690069800F5D460C44908604FF47A7000
:10020000FFF78CFFBB4800F00FFCEAE3BD48543019
:1002100009F04FFFBE490870084600787D287DD15F
:10022000B848543009F045FFBA49087008460078CC
:10023000082874D2DFE800F0040816519FE4FDFCA2
:10024000AC4800F0F1FBB5E3AE48543009F031FFA3
:10025000B04948700846407801460690A54800F02D
:1002600067FCA7E3012007900AE0A648543009F094
:1002700020FFC1B2A74A079811540798401C079065
:1002800007980428F1DBA348C07801280ED19E48C6
:10029000006800909F48807806909E48407801232F
:1002A000059001469348069A00F086FC9948C0786C
:1002B00002280ED1954800680090964880780690F4
:1002C000944840780123059001468A48069A00F038
:1002D00073FC88480BF001FB6CE3012007900AE0F7
:1002E0008848543009F0E5FEC1B28A4A0798115493
:1002F0000798401C079007980628F1DB854840794D
:10030000012819D180480122016882480079CDE98D
:10031000012100907F48C078069001E05EE348E349
:100320007C48807805907B4840780490014671486D
:10033000DDE9052300F072FC76484079022816D1E9
:1003400072480122016873480079CDE901210090CB
:100350007048C07806906F48807805906D48407866
:10036000049001466348DDE9052300F057FC61482D
:100370000BF0B3FA1EE3012007900AE06148543005
:1003800009F097FEC1B2634A079811540798401CC0
:10039000079007980528F1DB5E480079012813D102
:1003A000594800680121CDE900105A48C0780690EC
:1003B00058488078059057484078049001464D4849
:1003C000DDE9052300F093FC52480079022813D19F
:1003D0004E4800680121CDE900104E48C0780690D3
:1003E0004C48807805904B4840780490014641483D
:1003F000DDE9052300F07BFC3E480BF06EFAD9E204
:10040000012007900AE03F48543009F052FEC1B283
:10041000404A079811540798401C079007980628EF
:10042000F1DB3C484079012861D13A48007901E08C
:1004300038E2E5E0022806D0032819D004282CD0A1
:10044000052872D13EE0304800683349CDE90010FC
:100450003048C07806902F48807805902D48407825
:10046000049001462348DDE9052300F034FD5DE0FA
:10047000254800682949CDE900102648C078069033
:100480002448807805902348407804900146194814
:10049000DDE9052300F01FFD48E01B480068204906
:1004A000CDE900101B48C07806901A488078059066
:1004B00018484078049001460E48DDE9052300F015
:1004C0000AFD33E0104800681649CDE900101148D4
:1004D000C07806900F48807805900E4840780490C8
:1004E00001460448DDE9052300F0F5FC1EE01EE0AE
:1004F0006C1A0020C41100200010024004010020EA
:1005000040420F0048010020F0000020F4000020CD
:10051000EC000020B401002080F300088CF30008F8
:1005200098F30008A4F30008FFE700BF00BFFE48EF
:100530004079022860D1FC480079022806D00328BF
:1005400019D004282CD0052854D13EE0F748006883
:10055000F749CDE90010F448C0780690F248807859
:100560000590F148407804900146F248DDE9052302
:1005700000F0B1FC3FE0ED480068EF49CDE9001024
:10058000E948C0780690E84880780590E6484078C9
:1005900004900146E748DDE9052300F09CFC2AE0D1
:1005A000E2480068E549CDE90010DF48C0780690D0
:1005B000DD4880780590DC48407804900146DD48AD
:1005C000DDE9052300F087FC15E0D8480068DC4928
:1005D000CDE90010D448C0780690D34880780590C3
:1005E000D148407804900146D248DDE9052300F067
:1005F00072FC00E000BF00BFCE480BF06EF9D9E1FD
:100600000120079009E0CF4809F053FDC1B2C64A66
:10061000079811540798401C079007980528F2DBAB
:10062000C148007901287DD1BF48C07808287AD216
:10063000DFE800F09304182C4054687FC24800683B
:10064000C2491422CDE900210290B7488078069073
:10065000B5484078202305900146B648069A00F038
:10066000FEFB7BE0B8480068B9492022CDE90021B3
:100670000290AD4880780690AB48407813460590CC
:100680000146AC48069A00F0EAFB67E0AE48006815
:10069000B0490E22CDE900210290A348807806904F
:1006A000A1484078402305900146A248069A00F0F0
:1006B000D6FB53E0A4480068A7490D22CDE90021EC
:1006C00002909948807806909748407830230590AA
:1006D00001469848069A00F0C2FB3FE09A4800683D
:1006E0009E490A22CDE9002102908F488078069029
:1006F0008D4840782023059001468E48069A00F0E8
:10070000AEFB2BE09048006895490C22CDE9002112
:100710000290854880780690834840784023059071
:10072000014601E01BE018E08248069A00F097FBC2
:1007300014E0854800688B490D22CDE90021029024
:1007400079488078069078484078302305900146B3
:100750007848069A00F083FB00E000BF00BF7248B3
:10076000007902287ED17048C07808287BD2DFE863
:1007700000F09304182C4054687F6C48006873495B
:100780001422CDE9002102906748807806906648DF
:1007900040782023059001466648069A00F05FFBEA
:1007A0007BE0624800686A492022CDE9002102907E
:1007B0005D48807806905C48407813460590014675
:1007C0005C48069A00F04BFB67E0584800686149B6
:1007D0000E22CDE9002102905348807806905248BD
:1007E00040784023059001465248069A00F037FBB6
:1007F00053E04E48006858490D22CDE9002102908F
:100800004948807806904848407830230590014652
:100810004848069A00F023FB3FE0444800684F49EF
:100820000A22CDE9002102903F48807806903E4898
:1008300040782023059001463E48069A00F00FFBC1
:100840002BE03A48006846490C22CDE9002102908D
:10085000354880780690344840784023059001461A
:10086000344801E01AE017E0069A00F0F8FA14E0C4
:100870002E4800683B490D22CDE9002102902A480C
:100880008078069028484078302305900146294812
:10089000069A00F0E4FA00E000BF00BF25480BF024
:1008A0001CF887E00120079009E0264809F001FCC8
:1008B000C1B21D4A079811540798401C0790079829
:1008C0000628F2DB4FF48051274809F00DFD002087
:1008D000079009E01B4809F0ECFBC1B2224A0798D7
:1008E00011540798401C07900F48C0780E490979A9
:1008F000484307998842EDDC0B484079012839D1FB
:100900001148194A016808480079CDE90121009091
:100910000548C078069004488078059002484078E1
:1009200004900146034821E0B4010020F4000020B7
:1009300080F30008C41100208CF3000898F300082D
:10094000A4F300089C010020F00000201CC7000850
:100950006CC70008C2C800084CC800089AC8000844
:10096000ECC7000832C90008C4010020DDE90523F6
:1009700000F075FA24484079022816D12348244A09
:10098000016821480079CDE9012100901E48C07816
:1009900006901D48807805901B48407804900146D9
:1009A0001C48DDE9052300F05AFA1A480AF095FFC1
:1009B00000E000BF00BF184809F07BFB1749087032
:1009C000084600787E2809D002E0134809F071FB40
:1009D0001148543809F087FA0028F6D10D480AF07A
:1009E0007CFF13E410B500231B221A210A48543857
:1009F00009F01CFA04460A4A0A490AF0ABFF054806
:100A000000F02DF810BD0000B4010020F40000201B
:100A1000C4010020C41100209C010020EC00002033
:100A200000000008B9B8000870B500F5287100F59D
:100A3000D462B0F8A058B0F8A26805FB06F3DD1741
:100A400003EBD5656C1102E0002308C108C2230046
:100A5000A4F10104F8D1012380F8A53870BD2DE977
:100A6000F0410446254600260F2701233A46314629
:100A7000284607F05EFD00BF2C46042104F1140057
:100A80000AF098FEA0F11404062104F128000AF0EF
:100A900091FEA0F12804052104F13C000AF08AFE31
:100AA000A0F13C04072104F150000AF083FEA0F1FC
:100AB0005004102104F164000AF07CFEA0F16404EB
:100AC000112104F178000AF075FEA0F1780404F118
:100AD0008C051D263146284607F050FE00BFA5F1C3
:100AE0008C0404F18C0564263146284607F00AFE82
:100AF00000BF4FF07C50C4F89C00002084F8A4088C
:100B000084F8A60884F8A5088020A4F8A00820206E
:100B1000A4F8A2082046FFF787FF2046BDE8F08131
:100B2000A0F8A018A0F8A228012380F8A6387047E2
:100B30002DE9F04781460C46002C01DA002402E042
:100B4000642C00DD6424204609F029FE07460022BB
:100B5000F94B09F0A7FD054609F05FFEC9F89C00B6
:100B6000BDE8F08770B50446F449D4F89C0009F05C
:100B700029FD054609F024FE70BDF0B500F5287189
:100B800000F1A00200F5D46300F59464B0F8A078F9
:100B9000B0F8A2C807FB0CF5EF1705EBD7677E117D
:100BA00003E020C920C220CB20C43500A6F10106F5
:100BB000F7D180F8A558F0BDF0B504461E46059F54
:100BC000B4F8A0588D4203DDB4F8A258954200DC79
:100BD000F0BDB4F8A05802FB051507EBE5000D4683
:100BE0004FEAE17C01EB5C7C4FEAEC0CA1EBCC0C16
:100BF0000CF0FF0346B105784FF0800C4CFA03FC73
:100C000045EA0C05057007E005784FF0800C4CFABA
:100C100003FC25EA0C05057000BFD9E72DE9FF4F5D
:100C200085B089460898A0EB0900049007991298AE
:100C3000401A03900498002803DD049C4FF0010A39
:100C400003E0049844424FF0FF3A0398002803DD84
:100C5000039D0120029004E0039845424FF0FF30CD
:100C60000290681001904FEA640B4F46DDF81C803B
:100C700014981FFA88F2B9B20090139B0598FFF7F9
:100C80009BFFAC4216DB002611E0AB44A34503DB1F
:100C9000ABEB040B02988044574414981FFA88F277
:100CA000B9B20090139B0598FFF786FF761CA64209
:100CB000EBDB19E0002615E0019820440190019833
:100CC000A84203DB0198401B0190574402988044DE
:100CD00014981FFA88F2B9B20090139B0598FFF799
:100CE0006BFF761CAE42E7DB09B0BDE8F08F2DE963
:100CF000F84F83460E4617469946DDF82C804C4641
:100D00000025C4F1010A64E0E81982B2A01981B299
:100D1000CDF8008058460A9BFFF74EFFE01982B2DB
:100D2000A81981B2CDF8008058460A9BFFF744FF0E
:100D3000E81982B26042304481B2CDF80080584652
:100D40000A9BFFF739FFE01982B26842304481B252
:100D5000CDF8008058460A9BFFF72EFF68423844C2
:100D600082B26042304481B2CDF8008058460A9B7E
:100D7000FFF722FF6042384482B26842304481B2B9
:100D8000CDF8008058460A9BFFF716FF68423844AA
:100D900082B2A01981B2CDF8008058460A9BFFF7B5
:100DA0000BFF6042384482B2A81981B2CDF80080AE
:100DB00058460A9BFFF700FF6D1CBAF1000F03DCD9
:100DC0006800401C824404E0641E281B4000401C54
:100DD0008244A54298DDBDE8F88F2DE9F84F8146A1
:100DE0000E4617469846DDF830B0DDF828A03446A8
:100DF0000FE03D4609E0CDF800B02A4621464846BE
:100E00000B9BFFF7D9FE681C85B25545F3DB601CD0
:100E100084B24445EDDBBDE8F88F2DE9F84F8146FB
:100E20000E4617469846DDF830B0DDF828A00024BD
:100E300011E000250BE0781982B2301981B2CDF8AB
:100E400000B048460B9BFFF7B7FE681C85B25545BE
:100E5000F1DB601C84B24445EBDBBDE8F88F2DE983
:100E6000FF4F83B00F4690461E46DDE9109A0025DD
:100E70002CE0002426E005FB0640C11700EB517171
:100E80000AEBE10102912046E11704EB5171C91010
:100E9000A4EBC101C1F1070101F0FF0B029800783A
:100EA00040FA0BF000F0010001901298009005EB61
:100EB000080082B2E01981B2019B0398FFF77CFE23
:100EC000601C84B2B442D6DB681C85B24D45D0DBD1
:100ED00007B0BDE8F08F2DE9FF4F86B08A46139C1E
:100EE0002668A0880590E7880599C81DC11700EB02
:100EF0005171C91004910498784380B20390002185
:100F00001498CDE9007102905146DDE90530089A48
:100F1000FFF783FF21890998411A039801FB0066B6
:100F20004FF000082BE0002524E096F800904FF6E3
:100F3000FF7000EAC50B18E0000059400000C842ED
:100F400009F0010058B1149800900898404482B20A
:100F50000AEB0B0081B201230698FFF72DFE0BF17F
:100F600001001FFA80FB4FEA6909B9F1000FE7D1D0
:100F7000761C6D1C04988542D7DB08F10108B84542
:100F8000D1DB0AB0BDE8F08F2DE9FC4307460D46E2
:100F900090461C46DDE909690BE0CDE9006923783C
:100FA000424629463846FFF796FFB088284485B266
:100FB000641C20780028F0D1BDE8FC832DE9FF5F98
:100FC000044694F8A60808B9BDE8FF9F94F8A50860
:100FD00010B12046FFF7D1FDB4F8A008C11700EB0F
:100FE0005171CA1004F1A001744B1B7803FB021667
:100FF000B4F8A008C11700EB5171CA1004F5946150
:101000006E4B1B7803FB02184FF07E5104F18C00ED
:101010000AF047FC4FF0000A84E03746C146B4F8B6
:10102000A00806EB40060020039059E038780290B3
:1010300099F800B0B4F8A0180801C11700EB51717D
:10104000C910795C0191B4F8A0180801C11700EB30
:101050005171C91019F8011000917F1C09F10109A3
:1010600094F8A40802994840029094F8A40880EAF1
:101070000B0B00252EE0002104F178000AF0A7FBFD
:1010800080202841029A00EA020104F114000AF0CB
:101090009EFB8020284100EA0B0104F13C000AF08D
:1010A00096FB80202841019A00EA020104F1280001
:1010B0000AF08DFB80202841009A00EA020104F129
:1010C00050000AF084FB012104F178000AF07FFB54
:1010D000681CC5B2082DCEDB0398401CC0B203903B
:1010E000B4F8A008C11700EB51720399B1EBE20FFD
:1010F0009CDB002104F178000AF069FBB4F8A01829
:101100004801C11700EB517106EBE106B4F8A018D5
:101110004801C11700EB517108EBE1080AF1010029
:1011200000F0FF0AB4F8A208C11700EBD161BAEBD6
:10113000611FFFF672AF2148057800BF294620469F
:1011400007F02AFA00BF00BF002104F164000AF092
:101150003EFB012104F164000AF039FB4FF07E50A0
:10116000D4F89C1009F028FA0546294604F18C00B1
:101170000AF097FB11480078401C00F00F000F495F
:10118000087000BF20E790F8A418C94380F8A4189D
:101190007047014691F8A4087047012180F8A6180D
:1011A000704710B50446002084F8A6084FF07E5121
:1011B00004F18C000AF075FB10BD0000F80000205F
:1011C0000648804706480047FEE7FEE7FEE7FEE7E1
:1011D000FEE7FEE7FEE7FEE7FEE7FEE7AD7F00087D
:1011E000ED000008704770B5044601F06CFF4FF445
:1011F0007A71B0FBF1F5284600F02EF90022214665
:10120000501E00F0B3F8002070BD10B541480068D2
:1012100040F010003F490860032000F095F80F20CF
:1012200006F098FDFFF7DEFF002010BD704710B5F7
:101230004FF0FF303849C86000200861401EC86088
:101240000020C860FFF7F2FF002010BD334800689F
:10125000401C32490860704730480068704731B51B
:101260000024FFF7F9FF044600BFFFF7F5FF001B5E
:1012700000998842F9D338BD4FF0E020006920F092
:1012800002004FF0E021086170474FF0E020006954
:1012900040F002004FF0E021086170474FF080708D
:1012A00070471F4800681F4991FAA1F1B1FA81F116
:1012B000C84070471A480068C0F30B0070471848D0
:1012C000406840F001001649486070471448406883
:1012D00020F001001249486070471148406840F012
:1012E00002000F49486070470D48406820F0020036
:1012F0000B49486070470A48406840F004000849BC
:10130000486070470648406820F00400044948607F
:10131000704700000020024000100240FC00002046
:10132000002004E00000FFFF10B5002807DA0A07DC
:10133000140EA94A00F00F031B1FD45403E00A0740
:10134000130EA64A135410BD00BF00F00702A24BB3
:101350000C3B19684FF6FF031940A14B0B4343EABE
:1013600002219D4B0C3B196000BF70472DE9F05FD7
:1013700080460D461646002700F027F907463946F5
:101380002A46334601F00700C0F1070ABAF1040FFC
:1013900002D94FF0040A01E0C0F1070AD14600F17A
:1013A000040ABAF1070F02D24FF0000A01E0A0F1DF
:1013B000030AD4464FF0010A0AFA09FAAAF1010A0F
:1013C0000AEA020A0AFA0CFA4FF0010B0BFA0CFBBC
:1013D000ABF1010B0BEA030B4AEA0B042146404632
:1013E000FFF7A2FFBDE8F09F00BF00F01F02012140
:1013F00091404209920002F1E022C2F8001100BFC0
:10140000704700BF00F01F0201219140754A430957
:1014100042F8231000BF704700BF00BF00BF00BFED
:1014200000BFBFF34F8F00BF00BF00BF6A480C383A
:10143000006800F4E0606A490843001D66490C3901
:10144000086000BF00BF00BFBFF34F8F00BF00BFE9
:1014500000BF00E000BFFDE770B504462546681EEA
:10146000B0F1807F01D301200FE0681E4FF0E02132
:1014700048610F214FF0FF30FFF756FF00204FF07B
:10148000E021886107200861002070BD10B500F0E0
:101490009CF810BD2DE9F04304462046002808DAE8
:1014A0004D4F00F00F0CACF1040C17F80C703F0915
:1014B00002E04A4F3F5C3F093D460E4606F00700FA
:1014C000C0F10708B8F1040F02D94FF0040801E099
:1014D000C0F10708C44600F10408B8F1070F02D2B2
:1014E0004FF0000801E0A0F10308474625FA07F88D
:1014F0004FF0010909FA0CF9A9F1010908EA0908F4
:10150000C2F800804FF0010808FA07F8A8F10108B6
:1015100008EA0508C3F8008000BFBDE8F08300BFFB
:1015200000F01F02012191402E4A8032430942F807
:10153000231000BF704710B501460846294A803283
:10154000430952F8232000F01F040123A3401A404E
:101550000AB1012200E00022104610BD00BF00F0D9
:101560001F0201219140204A430942F8231000BF85
:10157000704710B5014608461B4A8032430952F8AD
:10158000232000F01F040123A3401A400AB10122C6
:1015900000E00022104610BD042808D14FF0E021E1
:1015A000096941F004014FF0E022116107E04FF0BA
:1015B000E021096921F004014FF0E0221161704738
:1015C000704710B5FFF7FCFF10BD03480C380068EA
:1015D000C0F302207047000018ED00E000E400E0D6
:1015E0000000FA0580E100E080E200E00146002210
:1015F00009B90120704791F8210010B9002081F845
:101600002000022081F821000868026843F6F0708B
:101610008243D1E901031843CB6818430B6918438F
:101620004B6918438B691843CB6918430243086818
:10163000026000204863012081F821000020D9E7E2
:10164000014609B90120704791F82100022801D113
:101650000120F8E70868006820F001000A681060BF
:1016600000200A6810600A6850600A6890600A6882
:10167000D060F74A0868904201D1022027E0F44A7E
:1016800014320868904201D1202020E0F04A28322C
:101690000868904201D1401519E0ED4A3C320868D3
:1016A000904202D14FF4005011E0E94A50320868EC
:1016B000904202D14FF4003009E0E54A64320868F4
:1016C000904202D14FF4001001E04FF00070E04A68
:1016D000083A5060DE4A0868904201D1082027E0AD
:1016E000DB4A14320868904201D1802020E0D84AB9
:1016F00028320868904201D1C01419E0D44A3C3223
:101700000868904202D14FF4004011E0D04A5032B4
:101710000868904202D14FF4002009E0CC4A6432BC
:101720000868904202D14FF4000001E04FF00060E1
:10173000C74A083A5060C64A0868904201D104205E
:1017400027E0C34A14320868904201D1402020E0CB
:10175000BF4A28320868904201D1001519E0BC4AFE
:101760003C320868904202D14FF4804011E0B84A00
:1017700050320868904202D14FF4802009E0B44A08
:1017800064320868904202D14FF4800001E04FF0CB
:101790008060AF4A083A50600020486381F8210019
:1017A00000BF81F8200000BF00BF4CE710B50468FF
:1017B00063604468102C04D10468A2600468E1608E
:1017C00003E00468A1600468E26010BD2DE9F04107
:1017D00004460D4616461F4600BF94F82000012817
:1017E00002D10220BDE8F081012084F8200000BF72
:1017F000022084F821002068006820F001002168A0
:1018000008603B46324629462046FFF7CFFF206856
:10181000006840F00100216808600020E2E72DE93F
:10182000F04104460D4616461F4600BF94F82000BE
:10183000012802D10220BDE8F081012084F82000B7
:1018400000BF022084F821002068006820F0010019
:10185000216808603B46324629462046FFF7A6FF2E
:101860002068006840F00200216808602068006875
:1018700040F00400216808602068006840F008001B
:10188000216808602068006840F001002168086055
:101890000020D0E770B5044600252068006820F0DD
:1018A000010021680860FFF7D7FC054613E0FFF749
:1018B000D3FC401BB0F57A7F0DD9606B40F020005F
:1018C0006063032084F8210000BF002084F820001A
:1018D00000BF032070BD2068006800F001000028F0
:1018E000E5D1012084F8210000BF002084F8200009
:1018F00000BF00BFEEE72DE9F04104460E46154655
:101900004FF000087EBB52492068884201D1022076
:1019100027E04F4914312068884201D1202020E07F
:101920004B4928312068884201D1401519E04849C7
:101930003C312068884202D14FF4005011E0444904
:1019400050312068884202D14FF4003009E040490C
:1019500064312068884202D14FF4001001E04FF05A
:10196000007007462FE0FFE739492068884201D11F
:10197000042027E0364914312068884201D14020F4
:1019800020E0334928312068884201D1001519E050
:101990002F493C312068884202D14FF4804011E049
:1019A0002B4950312068884202D14FF4802009E051
:1019B000274964312068884202D14FF4800001E059
:1019C0004FF080600746FFF747FC80468DE02048D7
:1019D000083800681E4A2168914201D1082127E099
:1019E0001B4A14322168914201D1802120E0184A1B
:1019F00028322168914201D1C91419E0144A3C32BD
:101A00002168914202D14FF4004111E0104A503256
:101A10002168914202D14FF4002109E00C4A64325E
:101A20002168914202D14FF4000101E04FF00061C2
:101A30000840E0B306492068884201D1082029E027
:101A4000034914312068884204D1802022E000003C
:101A500008000240F9492068884201D1C01419E009
:101A6000F64914312068884202D14FF4004011E059
:101A7000F24928312068884202D14FF4002009E061
:101A8000EE493C312068884202D14FF4000001E069
:101A90004FF00060E94930394860606B40F0010068
:101AA0006063042084F8210000BF002000E005E00E
:101AB00084F8200000BF0120BDE8F081681CA0B1BF
:101AC0002DB1FFF7C9FBA0EB0800A8420DD9606B50
:101AD00040F020006063032084F8210000BF002054
:101AE00084F8200000BF0320E6E7D44830380068BF
:101AF000384000283FF46BAFA6BBD0492839206896
:101B0000884201D1022026E0CC491439206888425D
:101B100001D120201FE0C9492068884201D1401529
:101B200019E0C64914312068884202D14FF40050B0
:101B300011E0C24928312068884202D14FF40030B8
:101B400009E0BE493C312068884202D14FF40010C0
:101B500001E04FF00070B94930394860012084F845
:101B6000210034E0FFE7B54928392068884201D1D7
:101B7000042026E0B14914392068884201D1402070
:101B80001FE0AE492068884201D1001519E0AB4939
:101B900014312068884202D14FF4804011E0A749F7
:101BA00028312068884202D14FF4802009E0A349FF
:101BB0003C312068884202D14FF4800001E04FF0B0
:101BC00080609E4930394860112084F8210000BFB0
:101BD000002084F8200000BF00BF6DE710B5044668
:101BE000964830380068954A283A2168914201D1D8
:101BF000082126E0914A143A2168914201D18021BE
:101C00001FE08E4A2168914201D1C91419E08B4A24
:101C100014322168914202D14FF4004111E0874A09
:101C200028322168914202D14FF4002109E0834A11
:101C30003C322168914202D14FF4000101E04FF0A3
:101C40000061084000284DD020680068C0F3C00043
:101C500088B32068006820F0080021680860774990
:101C600028392068884201D1082027E073491439B7
:101C70002068884201D1802020E070492068884295
:101C800001D1C0141AE06D4914312068884202D194
:101C90004FF4004012E0694928312068884202D19F
:101CA0004FF400200AE065493C312068884203D1A6
:101CB0004FF4000002E015E04FF000605F4930395A
:101CC0004860606B40F001006063042084F82100EC
:101CD00000BF002084F8200000BF206B10B1204618
:101CE000216B8847554830380068544A283A2168A3
:101CF000914201D1042126E0504A143A21689142D0
:101D000001D140211FE04D4A2168914201D10915BE
:101D100019E04A4A14322168914202D14FF48041BD
:101D200011E0464A28322168914202D14FF48021C5
:101D300009E0424A3C322168914202D14FF48001CD
:101D400001E04FF08061084098B320680068C0F35C
:101D5000800070B32068006800F0200028B9206877
:101D6000006820F0040021680860344928392068A0
:101D7000884201D1042027E0304914392068884284
:101D800001D1402020E02D492068884201D1001572
:101D90001AE02A4914312068884202D14FF4804069
:101DA00012E0264928312068884203D14FF4802070
:101DB0000AE014E021493C312068884202D14FF406
:101DC000800001E04FF080601C49303948601120EC
:101DD00084F82100E06A10B12046E16A884717487C
:101DE00030380068154A283A2168914201D1022111
:101DF00028E0124A143A2168914201D1202121E0C1
:101E00000E4A2168914201D149151BE00B4A143258
:101E10002168914202D14FF4005113E0074A283261
:101E20002168914202D14FF400310BE0034A3C3269
:101E30002168914204D14FF4001103E030000240C8
:101E40004FF00071084098B320680068C0F340006C
:101E500070B32068006800F0200028B9206800688E
:101E600020F002002168086024492068884201D1DE
:101E7000022028E0214914312068884201D1202025
:101E800021E01E4928312068884201D140151AE01E
:101E90001A493C312068884202D14FF4005012E0C8
:101EA000164950312068884203D14FF400300AE0CF
:101EB0001BE0124964312068884202D14FF40010BF
:101EC00001E04FF000700D4908394860606B6063B5
:101ED000012084F8210000BF002084F8200000BF0A
:101EE000A06A10B12046A16A884710BD014691F84A
:101EF000210070470146486B70470000080002400F
:101F00002DE9F847034600240020002584460027D9
:101F100000226EE14FF0010808FA02F4D1F80080C7
:101F200008EA0400A0427DD1DFF860A4D1F8048063
:101F3000A8EB0A09D0453AD014DCB8F1030F50D011
:101F400009DCB8F1000F31D0B8F1010F1CD0B8F1A5
:101F5000020F49D120E0B8F1110F18D0B8F1120FDB
:101F600042D11EE0B9F5881F25D006DCB9F5803FC7
:101F700020D0B9F5801F37D11AE0B9F5001F18D06D
:101F8000B9F5041F30D117E0D1F80CC02DE0D1F81D
:101F90000C8008F1040C28E0D1F80C8008F1080C42
:101FA00023E0D1F80C8008F10C0C1EE000BF00BF4C
:101FB00000BF00BF00BF00BFD1F80880B8F1000F1C
:101FC00002D14FF0040C0BE0D1F80880B8F1010FFA
:101FD00003D14FF0080C1C6102E04FF0080C5C616B
:101FE00003E04FF0000C00E000BF00BFFF2801D865
:101FF000984601E003F104084646FF2802D84FEA5C
:10200000820803E0A2F108084FEA88084746D6F89C
:1020100000804FF00F0909FA07F928EA09080CFABD
:1020200007F900E088E048EA0908C6F80080D1F81E
:10203000048008F08058B8F1805F7DD100BFDFF8E0
:102040005083D8F8188048F00108DFF84493C9F8A5
:102050001880C846D8F8188008F00108CDF800802C
:1020600000BF00BF4FEAB9384FEA920958F829502B
:102070004FEA82784FEA18794FF00F0808FA09F80A
:1020800025EA0805DFF80C83434502D14FF000082C
:1020900016E0DFF80483434502D14FF001080FE05A
:1020A000DFF8F882434502D14FF0020808E0DFF87C
:1020B000F082434502D14FF0030801E04FF00408DD
:1020C0004FEA82794FEA197908FA09F848EA0505D2
:1020D000DFF8D0824FEA920948F82950D1F80480FD
:1020E00008F48038B8F5803F0AD1DFF8BC82D8F810
:1020F000008048EA0008DFF8B092C9F8008009E0E3
:10210000DFF8A482D8F8008028EA0008DFF8989267
:10211000C9F80080D1F8048008F40038B8F5003F11
:1021200010D1DFF8848208F10408D8F8008048EA6A
:102130000008DFF8749200E05AE009F10409C9F8D8
:1021400000800DE0DFF8608208F10408D8F8008014
:1021500028EA0008DFF8509209F10409C9F8008064
:10216000D1F8048008F48018B8F5801F0ED1DFF88C
:10217000388208F10808D8F8008048EA0008DFF83B
:10218000289209F10809C9F800800DE0DFF81882EB
:1021900008F10808D8F8008028EA0008DFF808925B
:1021A00009F10809C9F80080D1F8048008F4001882
:1021B000B8F5001F0ED1DFF8F08108F10C08D8F84F
:1021C000008048EA0008DFF8E09109F10C09C9F83D
:1021D00000800DE0DFF8D08108F10C08D8F800800D
:1021E00028EA0008DFF8C09109F10C09C9F800805D
:1021F000521C102AFFF48EAEBDE8F8872DE9F0419D
:1022000002460B4600200021002400267FE0012723
:10221000874007EA0301002978D0FF2901D8174633
:1022200000E0171D3D46FF2901D8870002E0A0F11C
:102230000807BF003E462F684FF00F0C0CFA06FC53
:1022400027EA0C074FF0040C0CFA06FC47EA0C07CF
:102250002F60D7688F43D760524F4FEA900C57F8E2
:102260002C4087074FEA177C0F2707FA0CF73C40F2
:10227000484FBA4201D100270FE0474FBA4201D17F
:1022800001270AE0454FBA4201D1022705E0444F39
:10229000BA4201D1032700E004274FEA807C4FEACD
:1022A0001C7C07FA0CF7A74230D187074FEA177C4E
:1022B0000F2707FA0CF43B4F4FEA900C57F82C709D
:1022C000A743DFF8E0C04FEA90084CF82870364F7B
:1022D0003F688F43DFF8D0C0CCF800700CF10407E2
:1022E0003F688F430CF1040CCCF800700CF104072C
:1022F0003F688F430CF1040CCCF800700CF104071C
:102300003F688F430CF1040CCCF80070401C23FA9A
:1023100000F7002F7FF47BAFBDE8F08102469368A1
:102320000B400BB1012000E0002070470AB10161B1
:1023300001E00B0403617047C2684A40C260704705
:1023400008B502464FF48030009000980843009092
:1023500000989061916100989061906900909069F7
:1023600000F4803008B1002008BD0120FCE7704770
:1023700010B504460C4814300068204028B10A48C3
:10238000143004602046FFF7F2FF10BD000011106A
:102390000010024000080140000C01400010014004
:1023A000001401400800014000040140FB4840685F
:1023B00020F00300F949486008460068F8490840E1
:1023C000F64908600846006820F480200860002074
:1023D00048600846006820F0F8001021F82292FAC0
:1023E000A2F2B2FA82F291400843EC490860002060
:1023F0008860704738B504460025207800F0010059
:1024000000287BD0E548406800F00C0004280CD080
:10241000E248406800F00C0008283AD1DF484068E4
:1024200000F48030B0F5803F33D12020010391FAD1
:10243000A1F1B1FA81F108430121B1EB601F02D192
:10244000D64800680FE02020010391FAA1F1B1FA0B
:1024500081F108430221B1EB601F02D1CF48006A2D
:1024600001E0CE48406A20210A0392FAA2F2B2FAB1
:1024700082F2114301F01F0201219140084000281F
:10248000BFD060680128BCD060680528B9D00120A1
:1024900038BD00BFC148006820F48030BF490860E3
:1024A0000846006820F48020086000BFFEF7D4FED4
:1024B000054607E0FEF7D0FE401BB0F5FA7F01D9D4
:1024C0000320E5E72020010391FAA1F1B1FA81F19F
:1024D00008430121B1EB601F02D1B048006810E051
:1024E0002020010391FAA1F1B1FA81F10843022100
:1024F000B1EB601F03D1A948006A02E0A6E0A7483B
:10250000406A20210A0392FAA2F2B2FA82F211433F
:1025100001F01F020121914008400028CAD100BFEC
:102520009E48006820F480309C490860606801285B
:102530000AD10846006820F4802008600846006838
:1025400040F4803008600CE06068052803D12079F1
:102550009249887005E09148006820F480208F49F6
:10256000086000BF6068C0B3FEF776FE054607E06E
:10257000FEF772FE401BB0F5FA7F01D9032087E712
:102580002020010391FAA1F1B1FA81F10843012160
:10259000B1EB601F02D1814800680FE020200103E9
:1025A00091FAA1F1B1FA81F108430221B1EB601F68
:1025B00002D17A48006A01E07848406A20210A0383
:1025C00092FAA2F2B2FA82F2114301F01F02012143
:1025D000914008400028CBD038E0FFE7FEF73CFEF2
:1025E000054607E0FEF738FE401BB0F5FA7F01D93B
:1025F00003204DE72020010391FAA1F1B1FA81F106
:1026000008430121B1EB601F02D1644800680FE06C
:102610002020010391FAA1F1B1FA81F108430221CE
:10262000B1EB601F02D15D48006A01E05B48406A7F
:1026300020210A0392FAA2F2B2FA82F2114301F0C7
:102640001F020121914008400028CBD1207800F0E2
:10265000020002284ED15148406800F00C0050B1F1
:102660004E48406800F00C00082844D14B484068B0
:1026700000F4803078BB2020022191FAA1F1B1FA58
:1026800081F108430121B1EB601F02D1434800688A
:102690000FE02020022191FAA1F1B1FA81F1084363
:1026A0000221B1EB601F02D13C48006A01E03B48C7
:1026B000406A2021022292FAA2F2B2FA82F2114377
:1026C00001F01F0201219140084028B12069012832
:1026D00002D00120DCE60EE03048006820F0F8006F
:1026E000F82292FAA2F2B2FA82F2616991400843AA
:1026F0002A49086098E02069F0B3012090FAA0F11F
:10270000B1FA81F1274A42F82100FEF7A5FD0546FE
:1027100006E0FEF7A1FD401B642801D90320B7E6BF
:102720002020022191FAA1F1B1FA81F1084301219F
:10273000B1EB601F02D1194800680FE02020022190
:1027400091FAA1F1B1FA81F108430221B1EB601FC6
:1027500002D11248006A01E01048406A202102229A
:1027600092FAA2F2B2FA82F2114301F01F020121A1
:1027700091400840002800E016E0CAD007480068F1
:1027800020F0F800F82292FAA2F2B2FA82F261691D
:10279000914008430149086046E0000000100240F3
:1027A000FFFFF6FE000042420021012090FAA0F057
:1027B000B0FA80F0F84A42F82010FEF74DFD0546C9
:1027C00006E0FEF749FD401B642801D903205FE6BF
:1027D0002020022191FAA1F1B1FA81F108430121EF
:1027E000B1EB601F02D1ED4800680FE0202002210C
:1027F00091FAA1F1B1FA81F108430221B1EB601F16
:1028000002D1E648006A01E0E448406A2021022241
:1028100092FAA2F2B2FA82F2114301F01F020121F0
:10282000914008400028CCD1207800F0080008280A
:1028300046D1A06980B3012090FAA0F1B1FA81F1EC
:10284000D54A02EB8101C1F88004FEF705FD05467B
:1028500006E0FEF701FD401B642801D9032017E6BE
:102860006020022191FAA1F1B1FA81F1084301211E
:10287000B1EB601F02D1C948006810E0602002215E
:1028800091FAA1F1B1FA81F108430221B1EB601F85
:1028900003D1C248006A02E013E0C048406A6021E8
:1028A000022292FAA2F2B2FA82F2114301F01F025E
:1028B0000121914008400028CBD00120FEF7CFFC39
:1028C00041E00020012191FAA1F1B1FA81F1B24A6F
:1028D00002EB8101C1F88004FEF7BEFC054606E06C
:1028E000FEF7BAFC401B642801D90320D0E5602024
:1028F000022191FAA1F1B1FA81F108430121B1EB72
:10290000601F02D1A54800680FE06020022191FA03
:10291000A1F1B1FA81F108430221B1EB601F02D1AC
:102920009E48006A01E09D48406A6021022292FAB6
:10293000A2F2B2FA82F2114301F01F02012191408A
:1029400008400028CCD1207800F0040004287CD175
:1029500000BF9248C06940F080509049C861084665
:10296000C06900F08050009000BF00BF8C48006834
:1029700040F480708A490860FEF76EFC054606E068
:10298000FEF76AFC401B642801D9032080E58448D7
:10299000006800F480700028F2D000BF0020012100
:1029A00091FAA1F1B1FA81F17B4A02EB8101C1F800
:1029B00000040021042090FAA0F0B0FA80F002EBAD
:1029C0008000C0F8001400BFFEF746FC054608E092
:1029D000FEF742FC401B41F28831884201D90320B6
:1029E00056E54020022191FAA1F1B1FA81F10843A4
:1029F0000121B1EB601F02D1684800680FE0402060
:102A0000022191FAA1F1B1FA81F108430221B1EB5F
:102A1000601F02D16148006A01E06048406A4021BD
:102A2000022292FAA2F2B2FA82F2114301F01F02DC
:102A30000121914008400028CAD100BFE068B0B928
:102A40000020012191FAA1F100E0BBE0B1FA81F18F
:102A5000514A02EB8101C1F80004042191FAA1F16D
:102A6000B1FA81F102EB8101C1F800042CE0E068C9
:102A7000012814D10020042191FAA1F1B1FA81F1C9
:102A8000454A02EB8101C1F80004012090FAA0F14F
:102A9000B1FA81F102EB8101C1F8000414E00020D9
:102AA000012191FAA1F1B1FA81F13B4A02EB8101D6
:102AB000C1F800040121042090FAA0F0B0FA80F0DF
:102AC00002EB8000C0F8001400BFE068012839D193
:102AD000FEF7C2FB054608E0FEF7BEFB401B41F2D5
:102AE0008831884201D90320D2E44020022191FAA2
:102AF000A1F1B1FA81F108430121B1EB601F02D1CC
:102B0000264800680FE04020022191FAA1F1B1FAB5
:102B100081F108430221B1EB601F02D11F48006A16
:102B200001E01E48406A4021022292FAA2F2B2FA63
:102B300082F2114301F01F02012191400840002858
:102B4000CAD03FE0FEF788FB054608E0FEF784FBAD
:102B5000401B41F28831884201D9032098E440208B
:102B6000022191FAA1F1B1FA81F108430121B1EBFF
:102B7000601F02D10948006816E04020022191FA46
:102B8000A1F1B1FA81F108430221B1EB601F09D133
:102B90000248006A08E000000000424200100240C3
:102BA00000700040FE48406A4021022292FAA2F2E0
:102BB000B2FA82F2114301F01F0201219140084054
:102BC0000028C3D1E069002873D0F548406800F0C0
:102BD0000C0008286ED0E06902286CD100204FF06C
:102BE000807191FAA1F1B1FA81F1EE4A42F8210027
:102BF000FEF732FB054606E0FEF72EFB401B64287D
:102C000001D9032044E42020010591FAA1F1B1FA91
:102C100081F108430121B1EB601F02D1E048006857
:102C20000FE02020010591FAA1F1B1FA81F10843EA
:102C30000221B1EB601F02D1D948006A01E0D848F7
:102C4000406A20210A0592FAA2F2B2FA82F21143F6
:102C500001F01F020121914008400028CCD1206AD8
:102C6000B0F5803F07D1CE48406820F40030A1681D
:102C70000843CB494860D4E908010843C84949687A
:102C800021F474110843C64948600120010691FAF5
:102C9000A1F1B1FA81F1C34A42F82100FEF7DCFA52
:102CA000054609E0FEF7D8FA401B642804D9032042
:102CB00007E472E06FE02CE02020010591FAA1F119
:102CC000B1FA81F108430121B1EB601F02D1B44890
:102CD00000680FE02020010591FAA1F1B1FA81F11D
:102CE00008430221B1EB601F02D1AD48006A01E048
:102CF000AB48406A20210A0592FAA2F2B2FA82F2A7
:102D0000114301F01F020121914008400028C9D061
:102D100043E000204FF0807191FAA1F1B1FA81F106
:102D2000A04A42F82100FEF797FA054606E0FEF7B2
:102D300093FA401B642801D9032020E420200105D8
:102D400091FAA1F1B1FA81F108430121B1EB601FC1
:102D500002D1934800680FE02020010591FAA1F10B
:102D6000B1FA81F108430221B1EB601F02D18C4816
:102D7000006A01E08A48406A20210A0592FAA2F21C
:102D8000B2FA82F2114301F01F0201219140084082
:102D90000028CCD101E001202BE4002029E470B50B
:102DA00004460E460025207800F00200022807D1D4
:102DB0007B48406820F0F000A168084378494860EB
:102DC000207800F0010000287CD0606801282DD117
:102DD0002020010391FAA1F1B1FA81F10843012108
:102DE000B1EB601F02D16E4800680FE020200103A4
:102DF00091FAA1F1B1FA81F108430221B1EB601F10
:102E000002D16748006A01E06548406A20210A0350
:102E100092FAA2F2B2FA82F2114301F01F020121EA
:102E200091400840002860D1012070BD60680228F0
:102E30002CD12020010591FAA1F1B1FA81F10843CA
:102E40000121B1EB601F02D1554800680FE020203E
:102E5000010591FAA1F1B1FA81F108430221B1EB28
:102E6000601F02D14E48006A01E04D48406A2021AF
:102E70000A0592FAA2F2B2FA82F2114301F01F029D
:102E800001219140084078BB0120CEE7202002219B
:102E900091FAA1F1B1FA81F108430121B1EB601F70
:102EA00002D13F48006810E02020022191FAA1F1F0
:102EB000B1FA81F108430221B1EB601F03D1384818
:102EC000006A02E054E03648406A2021022292FA69
:102ED000A2F2B2FA82F2114301F01F0201219140E5
:102EE000084008B90120A0E7FFE72D48406820F01E
:102EF0000300616808432A494860FEF7ADF90546BA
:102F00006068012810D108E0FEF7A6F9401B41F2E5
:102F10008831884201D9032087E72148406800F0C2
:102F20000C000428F0D123E06068022810D108E0EA
:102F3000FEF792F9401B41F28831884201D9032003
:102F400073E71748406800F00C000828F0D10FE044
:102F500008E0FEF781F9401B41F28831884201D92F
:102F6000032062E70E48406800F00C000028F0D112
:102F7000207800F00400042807D10948406820F4B4
:102F8000E060E168084306494860207800F00800E6
:102F900008280DD10248406820F46050216903E000
:102FA000001002400000424240EAC100A9494860C6
:102FB0000F2004F0CFFE002037E770B586B005463D
:102FC0000C46164600BFA348806940F00400A149A2
:102FD00088610846806900F00400019000BF00BFCE
:102FE0008815029002200390032005900020049091
:102FF00002A99948FEF784FF9648406820F0E060F7
:1030000020439449486006B070BD0120C10491FA84
:10301000A1F1B1FA81F1914A42F8210070470020F4
:103020004FF4002191FAA1F1B1FA81F18B4A42F8F3
:1030300021007047F0B585B00FF2242C9CE8E01019
:1030400001A8A0E8E0108AA52D68009500210024C1
:103050000022002300207F4D696801F00C056DB34C
:10306000042D02D0082D28D101E0824828E001F487
:1030700070154FF4701696FAA6F6B6FA86F6F54075
:1030800001AE735D01F4803595B1724D6D6805F444
:1030900000354FF4003696FAA6F6B6FA86F6F540F5
:1030A0001DF80540734DB5FBF4F505FB03F202E096
:1030B000714D03FB05F2104602E000BF6D4800BFF2
:1030C00000BF05B0F0BD10B5FFF7B4FF6149496816
:1030D00001F0F001F02292FAA2F2B2FA82F2D140AB
:1030E000664A515CC840664908600846006810BDE1
:1030F00010B5FFF7E8FF5749496801F4E0614FF464
:10310000E06292FAA2F2B2FA82F2D1405B4A515CDA
:10311000C84010BD10B5FFF7D6FF4E49496801F40D
:1031200060514FF4605292FAA2F2B2FA82F2D140A8
:10313000524A515CC84010BD0F21016045490968E1
:1031400001F48021B1F5802F02D1052141600BE00F
:103150004049096801F48031B1F5803F02D1012175
:10316000416001E0002141603A49496801F40031C1
:1031700081603849096801F0010111B10121016143
:1031800001E0002101613349096801F0F801F822EA
:1031900092FAA2F2B2FA82F2D14041612D49096A53
:1031A00001F00401042902D10521C16009E0294987
:1031B000096A01F0010111B10121C16001E00021A2
:1031C000C1602449496A01F0010111B10121816105
:1031D00001E0002181611F49096801F08071B1F1AE
:1031E000807F02D10221C16101E00121C161194941
:1031F000496801F4803202621649496801F470128C
:10320000426270470F220260124A526802F00302C3
:103210004260104A526802F0F00282600D4A526821
:1032200002F4E062C2600B4A526802F46052D208B3
:10323000026100220A607047704710B50548806837
:1032400000F08000802804D1FFF7F6FF80200149BC
:10325000887210BD00100240000801400000424288
:1032600002030405060708090A0B0C0D0E0F1010C7
:103270000102000000127A0000093D00B0F30008CE
:103280000401002070B504460D460026F74800688A
:1032900000F00700A84270D2F448006820F0070050
:1032A0002843F24908600846006800F00700A84279
:1032B00001D0012070BD207800F00200022807D163
:1032C000EB48406820F0F000A1680843E8494860F6
:1032D000207800F0010000286FD0606801282DD10F
:1032E0002020010391FAA1F1B1FA81F108430121F3
:1032F000B1EB601F02D1DE4800680FE0202001031F
:1033000091FAA1F1B1FA81F108430221B1EB601FFA
:1033100002D1D748006A01E0D548406A20210A035B
:1033200092FAA2F2B2FA82F2114301F01F020121D5
:1033300091400840002861D10120BBE76068022865
:103340002DD12020010591FAA1F1B1FA81F10843B4
:103350000121B1EB601F02D1C548006810E02020B8
:10336000010591FAA1F1B1FA81F108430221B1EB13
:10337000601F03D1BE48006A02E083E0BC48406A97
:1033800020210A0592FAA2F2B2FA82F2114301F068
:103390001F0201219140084078BB01208AE72020CC
:1033A000022191FAA1F1B1FA81F108430121B1EBB7
:1033B000601F03D1AE48006810E05BE120200221CD
:1033C00091FAA1F1B1FA81F108430221B1EB601F3A
:1033D00002D1A748006A01E0A548406A20210222E4
:1033E00092FAA2F2B2FA82F2114301F01F02012115
:1033F0009140084008B901205CE7FFE79C4840681D
:1034000020F003006168084399494860FDF724FFF4
:1034100006466068012810D108E0FDF71DFF801BFB
:1034200041F28831884201D9032043E7904840683F
:1034300000F00C000428F0D11CE16068022810D1D3
:1034400008E0FDF709FF801B41F28831884201D96D
:1034500003202FE78648406800F00C000828F0D1D0
:1034600008E108E0FDF7F8FE801B41F28831884250
:1034700001D903201EE77E48406800F00C000028B8
:10348000F0D1F7E0207800F00200022807D1784858
:10349000406820F0F000A168084375494860207832
:1034A00000F0010000286ED0606801282CD1202097
:1034B000010391FAA1F1B1FA81F108430121B1EBC5
:1034C000601F02D16A4800680FE02020010391FAD2
:1034D000A1F1B1FA81F108430221B1EB601F02D1E1
:1034E0006348006A01E06248406A20210A0392FAB8
:1034F000A2F2B2FA82F2114301F01F0201219140BF
:10350000084088BB0120D5E6606802282DD1202024
:10351000010591FAA1F1B1FA81F108430121B1EB62
:10352000601F02D1524800680FE02020010591FA87
:10353000A1F1B1FA81F108430221B1EB601F02D180
:103540004B48006A01E04A48406A20210A0592FA85
:10355000A2F2B2FA82F2114301F01F02012191405E
:10356000084008B90120A5E62DE02020022191FAAB
:10357000A1F1B1FA81F108430121B1EB601F03D140
:103580003B48006810E061E02020022191FAA1F19F
:10359000B1FA81F108430221B1EB601F02D1344836
:1035A000006A01E03248406A2021022292FAA2F227
:1035B000B2FA82F2114301F01F020121914008404A
:1035C00008B9012076E62A48406820F003006168C7
:1035D000084327494860FDF73FFE0646606801281A
:1035E00010D108E0FDF738FE801B41F28831884297
:1035F00001D903205EE61E48406800F00C00042854
:10360000F0D123E06068022810D108E0FDF724FE25
:10361000801B41F28831884201D903204AE61448D0
:10362000406800F00C000828F0D10FE008E0FDF73A
:1036300013FE801B41F28831884201D9032039E60C
:103640000B48406800F00C000028F0D107480068E3
:1036500020F007002843054908600846006800F08C
:103660000700A84206D0012024E600000020024006
:1036700000100240207800F00400042807D1CE4852
:10368000406820F4E060E1680843CB494860207856
:1036900000F00800082808D1C748406820F46050AE
:1036A000216940EAC100C44948600F2004F052FB80
:1036B0000020FFE50F220260BF4A526802F00302B9
:1036C0004260BD4A526802F0F0028260BA4A526813
:1036D00002F4E062C260B84A526802F46052D20852
:1036E0000261B64A126802F007020A607047F8B534
:1036F000044600250026207800F00100002876D03E
:1037000000BFAD48C06940F08050AB49C861084671
:10371000C06900F08050009000BF00BFA84800685A
:1037200040F48070A6490860FDF796FD054606E066
:10373000FDF792FD401B642801D90320F8BDA04885
:10374000006800F480700028F2D09B48006A00F402
:103750004076A08800F44070B0421BD09648006AC2
:1037600020F440760120010491FAA1F1B1FA81F12F
:10377000944A02EB8101C1F8000400204FF480312B
:1037800091FAA1F1B1FA81F102EB8101C1F80004D3
:10379000894806626068B0F5807F39D1FDF75CFD2D
:1037A000054608E0FDF758FD401B41F2883188428C
:1037B00001D90320C2E74020022191FAA1F1B1FA18
:1037C00081F108430121B1EB601F02D17A48006802
:1037D00010E04020022191FAA1F1B1FA81F10843F1
:1037E0000221B1EB601F03D17348006A02E017E0C9
:1037F0007148406A4021022292FAA2F2B2FA82F2A1
:10380000114301F01F020121914008400028C9D056
:103810006948006A20F4407061680843664908629C
:10382000207800F00200022807D16348406820F4A5
:103830004040A168084360494860207800F01000CB
:10384000102807D15C48406820F48000E1680843F4
:1038500059494860002071E7002101220260564A60
:10386000126A02F440714160026842F00202026092
:10387000514A526802F440428260026842F01002EB
:1038800002604D4A526802F48002C26070472DE91E
:10389000F04385B006464CA30FCB01AC0FC44EA03D
:1038A000006800900024A046A14600250027012EB4
:1038B0003DD0022E65D0102E77D13F484468006875
:1038C00000F0807068B304F470104FF4701191FA36
:1038D000A1F1B1FA81F1C84001A90F5C04F4803074
:1038E000A0B13548406800F40030710391FAA1F1AD
:1038F000B1FA81F1C8401DF8009004F4803040B165
:103900003648B0FBF9F000FB07F502E0344807FB4E
:1039100000F52948406800F48000B0F5800F01D11F
:10392000A84603E068000321B0FBF1F83EE022481E
:10393000046A04F44070B0F5807F05D104F0020001
:1039400010B14FF400481BE004F44070B0F5007F64
:1039500007D11948406A00F0020010B149F640480A
:103960000EE004F44070B0F5407F07D112480068C3
:1039700000F4003010B14FF2244801E04FF000088D
:1039800014E0FFF7C7FB01460B48406800F44040D5
:103990004FF4804292FAA2F2B2FA82F2D040401C76
:1039A0004000B1FBF0F801E0FFE700BF00BF404678
:1039B00005B0BDE8F0830000001002400020024086
:1039C0000070004000004242020304050607080997
:1039D0000A0B0C0D0E0F10100102000000127A00ED
:1039E00000093D0000220268F84B984208D0B0F16F
:1039F000804F05D0F64B984202D0F64B984203D147
:103A000022F070024B681A43F04B984208D0B0F194
:103A1000804F05D0EE4B984202D0EE4B984203D136
:103A200022F44072CB681A4302608B68C3620B6851
:103A30008362E64B984201D10B6903630123436122
:103A40007047704710B504460CB9012010BD94F8BA
:103A5000390028B9002084F838002046FFF7F1FF2C
:103A6000022084F83900211D2068FFF7BBFF0120E8
:103A700084F839000020E9E7704710B504460220B9
:103A800084F8390000BF2068006A41F21111084033
:103A900050B92068006A8910084028B92068006879
:103AA00020F001002168086000BF2046FFF7E4FF16
:103AB000002084F8390000BF84F8380000BF10BD32
:103AC0000146022081F839000868006840F00100D2
:103AD0000A681060012081F8390000207047014613
:103AE000022081F8390000BF0868006A41F2111213
:103AF000104050B90868006A9210104028B9086850
:103B0000006820F001000A68106000BF012081F801
:103B100039000020704701460868C06840F0010085
:103B20000A68D0600868006840F001000A68106008
:103B30000020704701460868C06820F001000A684C
:103B4000D06000BF0868006A41F21112104050B9FD
:103B50000868006A9210104028B90868006820F0D0
:103B600001000A68106000BF00207047704770B500
:103B70000446656A012085F839002846FFF7F6FFFC
:103B800070BD704770B50446656A012085F839003C
:103B90002846FFF7F6FF70BD70B504460E46154681
:103BA00094F83900022800D170BD94F8390001283A
:103BB00006D116B9002D00DDF6E7022084F83900A1
:103BC0008548E1698862AFF25900E16908632168BC
:103BD00001F12C022B463146E069FDF720FE2068FA
:103BE000C06840F480702168C8602068006840F0B8
:103BF0000100216808600020D6E701460868C06817
:103C000020F480700A68D06000BF0868006A41F242
:103C10001112104050B90868006A9210104028B97B
:103C20000868006820F001000A68106000BF0120E9
:103C300081F8390000207047704710B504460CB970
:103C4000012010BD94F8390028B9002084F838000C
:103C50002046FFF7F1FF022084F83900211D20687B
:103C6000FFF7C0FE012084F839000020E9E7704723
:103C700010B50446022084F8390000BF2068006AAD
:103C800041F21111084050B92068006A89100840BB
:103C900028B92068006820F001002168086000BF92
:103CA0002046FFF7E4FF002084F8390000BF84F8C5
:103CB000380000BF10BD30B50023012404FA01F321
:103CC000046A9C430462046A02FA01F52C4304620C
:103CD00030BD30B504460D46012229462068FFF765
:103CE000EAFF3A492068884201D1012000E0002023
:103CF00028B12068406C40F4004021684864206886
:103D0000006840F0010021680860002030BD30B537
:103D100004460D46002229462068FFF7CCFF2B49B8
:103D20002068884201D1012000E0002090B100BF4E
:103D30002068006A41F21111084050B92068006AF9
:103D40008910084028B92068406C20F400402168A0
:103D5000486400BF00BF2068006A41F211110840AA
:103D600050B92068006A8910084028B920680068A6
:103D700020F001002168086000BF002030BD30B590
:103D800004460D4635B1042D0BD0082D10D00C2D56
:103D900024D114E02068C06840F002002168C860A7
:103DA0001DE02068C06840F004002168C86016E08B
:103DB0002068C06840F008002168C8600FE02068F3
:103DC000C06840F010002168C86008E0002C014085
:103DD0000004004000080040853B000800BF00BF11
:103DE000012229462068FFF766FFF74920688842CC
:103DF00001D1012000E0002028B12068406C40F48F
:103E00000040216848642068006840F00100216893
:103E10000860002030BD30B504460D4635B1042D94
:103E20000BD0082D10D00C2D1CD114E02068C068D8
:103E300020F002002168C86015E02068C06820F00A
:103E400004002168C8600EE02068C06820F0080007
:103E50002168C86007E02068C06820F01000216871
:103E6000C86000E000BF00BF002229462068FFF7BD
:103E700022FFD5492068884201D1012000E00020BE
:103E800090B100BF2068006A41F21111084050B99A
:103E90002068006A8910084028B92068406C20F426
:103EA00000402168486400BF00BF2068006A41F2FA
:103EB0001111084050B92068006A8910084028B9DB
:103EC0002068006820F001002168086000BF002021
:103ED00030BD704770B505466C6A012084F8390022
:103EE000206AA84202D10120207610E0606AA84230
:103EF00002D1022020760AE0A06AA84202D1042062
:103F0000207604E0E06AA84201D10820207620460D
:103F1000FFF7DFFF0020207670BD2DE9F041044659
:103F20000E4615461F4694F83900022801D1BDE817
:103F3000F08194F83900012806D115B9002F00DD71
:103F4000F5E7022084F8390036B1042E1BD0082E84
:103F500030D00C2E5CD144E0AFF28701206A816240
:103F6000AFF2F531206A0163216801F134023B466A
:103F70002946206AFDF753FC2068C06840F40070B1
:103F80002168C86045E0AFF2B301606A8162AFF2B8
:103F90002141606A0163216801F138023B462946EC
:103FA000606AFDF73CFC2068C06840F480602168CE
:103FB000C8602EE0AFF2E301A06A8162AFF2514126
:103FC000A06A0163216801F13C023B462946A06AD0
:103FD000FDF725FC2068C06840F400602168C860D7
:103FE00017E0AFF20F11E06A8162AFF27D41E06A43
:103FF0000163216801F140023B462946E06AFDF772
:104000000EFC2068C06840F480502168C86000E061
:1040100000BF00BF012231462068FFF74CFE6A490D
:104020002068884201D1012000E0002028B12068EA
:10403000406C40F40040216848642068006840F00B
:10404000010021680860002071E730B504460D4684
:1040500035B1042D0BD0082D10D00C2D1CD114E03F
:104060002068C06820F400702168C86015E02068EE
:10407000C06820F480602168C8600EE02068C068D5
:1040800020F400602168C86007E02068C06820F460
:1040900080502168C86000E000BF00BF00222946B0
:1040A0002068FFF708FE48492068884201D10120B6
:1040B00000E0002090B100BF2068006A41F21111B9
:1040C000084050B92068006A8910084028B9206863
:1040D000406C20F400402168486400BF00BF2068A5
:1040E000006A41F21111084050B92068006A891035
:1040F000084028B92068006820F0010021680860A5
:1041000000BF012084F83900002030BD704710B591
:1041100004460CB9012010BD94F8390028B90020DC
:1041200084F838002046FFF7F1FF022084F83900B8
:10413000211D2068FFF756FC012084F8390000207B
:10414000E9E7704710B50446022084F8390000BF43
:104150002068006A41F21111084050B92068006AD5
:104160008910084028B92068006820F00100216803
:10417000086000BF2046FFF7E4FF002084F8390004
:1041800000BF84F8380000BF10BD30B504460D46AE
:10419000012229462068FFF78EFD0B4920688842DE
:1041A00001D1012000E0002028B12068406C40F4DB
:1041B0000040216848642068006840F001002168E0
:1041C0000860002030BD0000002C014030B50446DE
:1041D0000D46002229462068FFF76DFDFE49206844
:1041E000884201D1012000E0002090B100BF20688A
:1041F000006A41F21111084050B92068006A891024
:10420000084028B92068406C20F4004021684864C8
:1042100000BF00BF2068006A41F21111084050B988
:104220002068006A8910084028B92068006820F0DA
:1042300001002168086000BF012084F839000020D7
:1042400030BD30B504460D4635B1042D0BD0082DD8
:1042500010D00C2D1CD114E02068C06840F0020082
:104260002168C86015E02068C06840F0040021683B
:10427000C8600EE02068C06840F008002168C8608F
:1042800007E02068C06840F010002168C86000E0C6
:1042900000BF00BF012229462068FFF70CFDCE4970
:1042A0002068884201D1012000E0002028B1206868
:1042B000406C40F40040216848642068006840F089
:1042C000010021680860002030BD30B504460D466D
:1042D00035B1042D0BD0082D10D00C2D1CD114E0BD
:1042E0002068C06820F002002168C86015E02068DE
:1042F000C06820F004002168C8600EE02068C06833
:1043000020F008002168C86007E02068C06820F03D
:1043100010002168C86000E000BF00BF00222946ED
:104320002068FFF7C8FCAC492068884201D1012011
:1043300000E0002090B100BF2068006A41F2111136
:10434000084050B92068006A8910084028B92068E0
:10435000406C20F400402168486400BF00BF206822
:10436000006A41F21111084050B92068006A8910B2
:10437000084028B92068006820F001002168086022
:1043800000BF002030BD2DE9F04104460E46154621
:104390001F4694F83900022801D1BDE8F08194F855
:1043A0003900012806D115B9002F00DDF5E70220FC
:1043B00084F8390036B1042E1BD0082E30D00C2ED4
:1043C0005CD144E0AFF2F341206A8162AFF6610153
:1043D000206A0163216801F134023B462946206AC4
:1043E000FDF71DFA2068C06840F400702168C860BD
:1043F00045E0AFF21F51606A8162AFF68D01606ADD
:104400000163216801F138023B462946606AFDF7E5
:1044100006FA2068C06840F480602168C8602EE019
:10442000AFF24F51A06A8162AFF6BD01A06A01638D
:10443000216801F13C023B462946A06AFDF7EFF9ED
:104440002068C06840F400602168C86017E0AFF2DF
:104450007B51E06A8162AFF6E901E06A016321689D
:1044600001F140023B462946E06AFDF7D8F9206891
:10447000C06840F480502168C86000E000BF00BF01
:10448000012231462068FFF716FC53492068884214
:1044900001D1012000E0002028B12068406C40F4E8
:1044A0000040216848642068006840F001002168ED
:1044B0000860002071E730B504460D4635B1042D83
:1044C0000BD0082D10D00C2D1CD114E02068C06832
:1044D00020F400702168C86015E02068C06820F4EE
:1044E00080602168C8600EE02068C06820F4006029
:1044F0002168C86007E02068C06820F48050216807
:10450000C86000E000BF00BF002229462068FFF716
:10451000D2FB31492068884201D1012000E000200F
:1045200090B100BF2068006A41F21111084050B9F3
:104530002068006A8910084028B92068406C20F47F
:1045400000402168486400BF00BF2068006A41F253
:104550001111084050B92068006A8910084028B934
:104560002068006820F001002168086000BF012079
:1045700084F83900002030BD704710B504460CB9EE
:10458000012010BD94F8390028B9002084F83800C3
:104590002046FFF7F1FF022084F83900211D206832
:1045A000FFF720FA012084F839000020E9E770477E
:1045B00010B50446022084F8390000BF2068006A64
:1045C00041F21111084068B92068006A891008405A
:1045D00040B92068006801E0002C014020F0010093
:1045E0002168086000BF2046FFF7E1FF002084F843
:1045F000390000BF84F8380000BF10BD30B5044654
:104600000D46012229462068FFF755FB2068006807
:1046100040F0010021680860002030BD30B504463C
:104620000D46002229462068FFF745FB00BF2068A1
:10463000006A41F21111084050B92068006A8910DF
:10464000084028B92068006820F00100216808604F
:1046500000BF002030BD30B504460D4635B1042DF5
:104660000BD0082D10D00C2D1CD114E02068C06890
:1046700040F002002168C86015E02068C06840F082
:1046800004002168C8600EE02068C06840F008009F
:104690002168C86007E02068C06840F01000216809
:1046A000C86000E000BF00BF012229462068FFF774
:1046B00002FB2068006840F00100216808600020CB
:1046C00030BD30B504460D4635B1042D0BD0082D54
:1046D00010D00C2D1CD114E02068C06820F002001E
:1046E0002168C86015E02068C06820F004002168D7
:1046F000C8600EE02068C06820F008002168C8602B
:1047000007E02068C06820F010002168C86000E061
:1047100000BF00BF002229462068FFF7CCFA00BF87
:104720002068006A41F21111084050B92068006AFF
:104730008910084028B92068006820F0010021682D
:10474000086000BF002030BD704770B505466C6A38
:10475000012084F83900206AA84202D10120207685
:1047600010E0606AA84202D1022020760AE0A06A26
:10477000A84202D10420207604E0E06AA84201D1D8
:10478000082020762046FFF7DFFF0020207670BD4E
:104790002DE9F04104460D4616461F4694F83900AF
:1047A000022801D1BDE8F08194F83900012806D132
:1047B00016B9002F00DDF5E7022084F8390035B185
:1047C000042D1BD0082D30D00C2D5CD144E0AFF26D
:1047D0008501206A8162AFF66941206A016322681F
:1047E00002F134013B463246206AFDF718F8206892
:1047F000C06840F400702168C86045E0AFF2B501C0
:10480000606A8162AFF69941606A0163226802F1D1
:1048100038013B463246606AFDF701F82068C068FF
:1048200040F480602168C8602EE0AFF2E101A06A28
:104830008162AFF6C541A06A0163226802F13C01C2
:104840003B463246A06AFCF7EAFF2068C06840F4A5
:1048500000602168C86017E0AFF21111E06A816260
:10486000AFF6F541E06A0163226802F140013B4680
:104870003246E06AFCF7D3FF2068C06840F48050FD
:104880002168C86000E000BF00BF012229462068FF
:10489000FFF711FA2068006840F001002168086005
:1048A00000207FE730B504460D4635B1042D0BD00E
:1048B000082D10D00C2D1CD114E02068C06820F405
:1048C00000702168C86015E02068C06820F480602E
:1048D0002168C8600EE02068C06820F4006021688C
:1048E000C86007E02068C06820F480502168C86074
:1048F00000E000BF00BF002229462068FFF7DBF977
:1049000000BF2068006A41F21111084050B92068C8
:10491000006A8910084028B92068006820F001006A
:104920002168086000BF012084F83900002030BDF4
:10493000704770B504460D460CB9012070BD94F85F
:10494000390028B9002084F838002046FFF7F0FF2E
:10495000022084F83900211D2068FFF743F8206801
:10496000006820F00800216808602068006828437B
:1049700021680860012084F839000020DEE77047D4
:1049800010B50446022084F8390000BF2068006A90
:1049900041F21111084050B92068006A891008409E
:1049A00028B92068006820F001002168086000BF75
:1049B0002046FFF7E4FF002084F8390000BF84F8A8
:1049C000380000BF10BD30B504460D46012200215D
:1049D0002068FFF770F9012204212068FFF76BF9C6
:1049E000FA492068884201D1012000E0002028B166
:1049F0002068406C40F4004021684864002030BDCD
:104A000030B504460D46002211462068FFF753F9E1
:104A1000002204212068FFF74EF9EC492068884203
:104A200001D1012000E0002090B100BF2068006AA1
:104A300041F21111084050B92068006A89100840FD
:104A400028B92068406C20F400402168486400BF09
:104A500000BF2068006A41F21111084050B9206877
:104A6000006A8910084028B92068006820F0010019
:104A70002168086000BF002030BD30B504460D46F7
:104A80002068C06840F002002168C8602068C068E3
:104A900040F004002168C860012200212068FFF76F
:104AA0000AF9012204212068FFF705F9C7492068A7
:104AB000884201D1012000E0002028B12068406C2C
:104AC00040F4004021684864002030BD30B5044601
:104AD0000D462068C06820F002002168C860206888
:104AE000C06820F004002168C860002211462068D8
:104AF000FFF7E1F8002204212068FFF7DCF8B34952
:104B00002068884201D1012000E0002090B100BF60
:104B10002068006A41F21111084050B92068006A0B
:104B20008910084028B92068406C20F400402168B2
:104B3000486400BF00BF2068006A41F211110840BC
:104B400050B92068006A8910084028B920680068B8
:104B500020F001002168086000BF002030BD7047D0
:104B60002DE9F04104460D464FF0000800260027CD
:104B700014B90120BDE8F08194F8390028B900206B
:104B800084F838002046FFF7EAFF022084F8390055
:104B90002068806820F0070021688860211D206857
:104BA000FEF720FF2068D0F808802068866920681A
:104BB000076A286840EA080840F203308643A9697A
:104BC000A86840EA0120064340F60C4086434FF2B5
:104BD000F0008643E969E86840EA01200643286955
:104BE0000001296A40EA0130064327F0220727F036
:104BF00088076969686840EA011007432068C0F8BF
:104C000008802068866120680762012084F83900E6
:104C10000020AFE7704710B50446022084F8390041
:104C200000BF2068006A41F21111084050B92068A5
:104C3000006A8910084028B92068006820F0010047
:104C40002168086000BF2046FFF7E4FF002084F8D9
:104C5000390000BF84F8380000BF10BD30B50446ED
:104C60000D4615B1042D0CD105E00122002120686C
:104C7000FFF721F810E0012204212068FFF71BF85C
:104C80000AE0012200212068FFF715F80122042123
:104C90002068FFF710F800BF00BF2068006840F0F0
:104CA000010021680860002030BD30B504460D4683
:104CB00015B1042D0CD105E0002211462068FEF745
:104CC000FAFF10E0002204212068FEF7F4FF0AE05A
:104CD000002211462068FEF7EEFF00220421206822
:104CE000FEF7E9FF00BF00BF00BF2068006A41F285
:104CF0001111084050B92068006A8910084028B98D
:104D00002068006820F001002168086000BF0020D2
:104D100030BD30B504460D4615B1042D18D10BE059
:104D2000012200212068FEF7C6FF2068C06840F01D
:104D300002002168C86022E0012204212068FEF7F9
:104D4000BAFF2068C06840F004002168C86016E01F
:104D5000012200212068FEF7AEFF01220421206815
:104D6000FEF7A9FF2068C06840F002002168C86013
:104D70002068C06840F004002168C86000BF00BF20
:104D80002068006840F0010021680860002030BD04
:104D900030B504460D465DB9002211462068FEF785
:104DA0008AFF2068C06820F002002168C86025E002
:104DB000042D0DD1002204212068FEF77CFF20681D
:104DC000C06820F004002168C86017E0002C014092
:104DD000002211462068FEF76EFF002204212068A1
:104DE000FEF769FF2068C06820F002002168C860F3
:104DF0002068C06820F004002168C86000BF2068F7
:104E0000006A41F21111084050B92068006A891007
:104E1000084028B92068006820F001002168086077
:104E200000BF012084F83900002030BD2DE9F04199
:104E300004460E4617461D46DDF8188094F83900E2
:104E4000022801D1BDE8F08194F83900012809D188
:104E500007B125B9B8F1000F01DD0120F2E702200A
:104E600084F8390026B1042E23D0182E7ED141E0DB
:104E7000AFF22971206A8162F749206A01632268D2
:104E800002F1340143463A46206AFCF7C8FC206828
:104E9000C06840F400702168C8602068006840F075
:104EA000010021680860012200212068FEF703FF4D
:104EB0005DE0AFF26971606A8162E749606A01632F
:104EC000226802F1380143462A46606AFCF7A7FCD3
:104ED0002068C06840F480602168C860206800686D
:104EE00040F0010021680860012204212068FEF7DB
:104EF000E2FE3CE0AFF2AD71206A8162D649206AE1
:104F00000163226802F1340143463A46206AFCF705
:104F100086FCAFF2C971606A8162CF49606A016341
:104F2000226802F1380143462A46606AFCF777FCA2
:104F30002068006840F0010021680860012200211B
:104F40002068FEF7B8FE012204212068FEF7B3FEB8
:104F50002068C06840F400702168C8602068C0689C
:104F600040F480602168C86001E0FFE700BF00BF37
:104F7000002067E730B504460D465DB900221146B2
:104F80002068FEF798FE2068C06820F40070216851
:104F9000C86023E0042D0BD1002204212068FEF715
:104FA0008AFE2068C06820F480602168C86015E02F
:104FB000002211462068FEF77EFE002204212068B0
:104FC000FEF779FE2068C06820F400702168C86090
:104FD0002068C06820F480602168C86000BF206835
:104FE000006A41F21111084050B92068006A891026
:104FF000084028B92068006820F001002168086096
:1050000000BF012084F83900002030BD7047704790
:1050100010B5044620680069C0F34000D8B120688C
:10502000C068C0F34000B0B16FF0020021680861B1
:10503000012020762068806900F0030018B1204626
:10504000FFF782FB05E02046FFF7E1FF2046FEF771
:1050500040FF0020207620680069C0F38000D8B1AE
:105060002068C068C0F38000B0B16FF00400216810
:105070000861022020762068806900F4407018B131
:105080002046FFF761FB05E02046FFF7C0FF204602
:10509000FEF71FFF0020207620680069C0F3C000E3
:1050A000D8B12068C068C0F3C000B0B16FF008008C
:1050B00021680861042020762068C06900F00300A0
:1050C00018B12046FFF740FB05E02046FFF79FFFA1
:1050D0002046FEF7FEFE0020207620680069C0F31F
:1050E0000010D8B12068C068C0F30010B0B16FF0F4
:1050F000100021680861082020762068C06900F44B
:10510000407018B12046FFF71FFB05E02046FFF76F
:105110007EFF2046FEF7DDFE002020762068006935
:1051200000F0010058B12068C06800F0010030B103
:105130006FF00100216808612046FEF722FD20681B
:105140000069C0F3C01058B12068C068C0F3C01037
:1051500030B16FF0800021680861204601F054FEF4
:1051600020680069C0F3801058B12068C068C0F39F
:10517000801030B16FF04000216808612046FFF7D1
:1051800045FF20680069C0F3401058B12068C0682E
:10519000C0F3401030B16FF0200021680861204654
:1051A00001F085FD10BD30B5002200230024056A02
:1051B00025F480550562036A4468C26922F4E0421E
:1051C00022F440720D6842EA052223F400538D68F0
:1051D00043EA0533214DA84204D124F480444D69AB
:1051E00044EA85144460C2614D680564036230BDC1
:1051F00030B5002400220023056A25F4807505627D
:10520000026A4368C46924F0700424F003040D6842
:105210002C4322F400728D6842EA05220F4DA84209
:1052200007D100BF22F40062CD6842EA052222F4D1
:1052300080620A4DA84209D123F4805323F400531D
:105240004D6943EA05138D6943EA05134360C46160
:105250004D68C563026230BD6F3B0008002C014001
:1052600030B5002400220023056A25F010050562F0
:10527000026A4368846924F4E04424F440740D68AD
:1052800044EA052422F020028D6842EA0512FE4D10
:10529000A84207D100BF22F08002CD6842EA051281
:1052A00022F04002F84DA84209D123F4806323F490
:1052B00000634D6943EA85038D6943EA85034360D2
:1052C00084614D688563026230BD30B500240022E0
:1052D0000023056A25F001050562026A43688469B6
:1052E00024F0700424F003040D682C4322F0020221
:1052F0008D682A43E44DA84206D100BF22F008027F
:10530000CD682A4322F00402DF4DA84207D123F4DE
:10531000807323F400734D692B438D692B434360E5
:1053200084614D684563026230BD70B504460E4627
:10533000154600BF94F83800012801D1022070BD45
:10534000012084F8380000BF022084F8390035B10C
:10535000042D09D0082D0CD00C2D14D10EE03146AF
:105360002068FFF7B2FF0FE031462068FFF778FFB3
:105370000AE031462068FFF73BFF05E03146206830
:10538000FFF711FF00E000BF00BF012084F83900E3
:1053900000BF002084F8380000BF00BFCFE770B521
:1053A0000C46154600210022066A26F48056066245
:1053B000C169026A21F4407141EA052121F470417A
:1053C0004FF4704606EA0336314322F420424FF48C
:1053D000204606EA04363243C161026270BD70B5F0
:1053E0000C46154600210022066A26F480760662E5
:1053F000C169026A21F00301294321F0F001F0267E
:1054000006EA0316314322F420624FF4206606EACE
:1054100004263243C161026270BD70B50C46154668
:1054200000210022066A26F0100606628169026ADF
:1054300021F4407141EA052121F470414FF4704696
:1054400006EA0336314322F0A002A02606EA04163B
:1054500032438161026270BD70B50C461546002171
:105460000022066A26F0010606628169026A864EFB
:10547000B04208D0B0F1804F05D0844EB04202D087
:10548000834EB04201D1012600E000261EB121F07A
:105490000301294301E041F0010121F0F001F02670
:1054A00006EA0316314322F00A0204F00A063243E8
:1054B0008161026270BD2DE9F04104460D46164639
:1054C00000BF94F83800012802D10220BDE8F08125
:1054D000012084F8380000BF022084F8390096B912
:1054E000EB68D5E900122068FFF7B6FF20688069F5
:1054F00020F00C002168886120688069A968084351
:10550000216888613DE0042E13D1EB68D5E90012D3
:105510002068FFF782FF2068806920F440602168DE
:10552000886120688069A96840EA01202168886153
:1055300027E0082E12D1EB68D5E900122068FFF7AA
:105540004EFF2068C06920F00C002168C861206807
:10555000C069A96808432168C86112E0EB68D5E911
:1055600000122068FFF71BFF2068C06920F440602C
:105570002168C8612068C069A96840EA01202168E3
:10558000C861012084F8390000BF002084F8380089
:1055900000BF00BF9AE770B504460D46164600BF2F
:1055A00094F83800012801D1022070BD012084F850
:1055B000380000BF022084F8390036B1042E1BD019
:1055C000082E31D00C2E65D145E029462068FFF722
:1055D0007CFE2068806940F00800216888612068AE
:1055E000806920F004002168886120688069296949
:1055F0000843216888614EE029462068FFF730FEA5
:105600002068806940F400602168886120688069B2
:1056100020F480602168886120688069296940EAF7
:1056200001202168886136E029462068FFF7E0FD07
:105630002068C06940F008002168C8612068C0691E
:1056400020F004002168C8612068C0692969084306
:105650002168C8611FE029462068FFF7A4FD206883
:10566000C06940F400602168C8612068C06920F406
:1056700080602168C8612068C069296940EA01200A
:105680002168C86107E005E0002C014000040040EB
:105690000008004000BF00BF012084F8390000BFAF
:1056A000002084F8380000BF00BF7EE7F0B587B067
:1056B00004460D4616461F46BE4278D000BF94F8F9
:1056C0003800012802D1022007B0F0BD012084F883
:1056D000380000BF022084F839002868009068680C
:1056E0000190A8680290E8680390286905906869AD
:1056F000069016B1042E0AD104E069462068FFF72F
:10570000E4FD05E069462068FFF7AAFD00E000BF60
:1057100000BF17B1042F4BD124E0D5E90723A969B5
:105720002068FFF799FE2068806920F00C0021684E
:1057300088612068806820F0700021688860206897
:10574000806840F05000216888602068806820F000
:105750000700216888602068806840F006002168A2
:10576000886026E0D5E90723A9692068FFF755FE80
:105770002068806920F44060216888612068806822
:1057800020F07000216888602068806840F0600028
:10579000216888602068806820F0070021688860A0
:1057A0002068806840F006002168886001E00AE017
:1057B00000BF00BF012084F8390000BF002084F83A
:1057C000380000BF80E701207EE770B50446656AB7
:1057D000012085F839002846FFF718FC70BD2DE937
:1057E000F0410446884616461F46069D94F8390047
:1057F000022801D1BDE8F08194F83900012805D1D3
:105800000FB905B1F6E7022084F83900B6F5006F4C
:1058100047D009DCB6F5807F10D0B6F5007F1ED0EA
:10582000B6F5806F70D12BE0B6F5805F4AD0B6F543
:10583000005F58D0B6F5804F78D166E0F948E1694D
:105840008862F948E1690863012101EB15232168A9
:1058500001F14C023946E069FBF7E1FF67E0F349EB
:10586000206A8162F049206A0163012101EB15235E
:10587000216801F14C023946206AFBF7D0FF56E05F
:10588000EA49606A8162E849606A0163012101EBCB
:105890001523216801F14C023946606AFBF7BFFF0E
:1058A00045E0E249A06A8162DF49A06A0163012103
:1058B00001EB1523216801F14C023946A06AFBF780
:1058C000AEFF34E0D949E06A8162D749E06A0163FA
:1058D000012101EB1523216801F14C023946E06AF0
:1058E000FBF79DFF23E0D249206B8162CE49206BFC
:1058F0000163012101EB1523216801F14C023946B6
:10590000206BFBF78CFF12E010E0CA49606B8162EC
:10591000C549606B0163012101EB1523216801F189
:105920004C023946606BFBF77AFF00E000BF00BF16
:1059300048EA0500216888642068C068304321680F
:10594000C860012084F83900002053E770B5044690
:105950000D46B5F5006F20D009DCB5F5807F10D07D
:10596000B5F5007F11D0B5F5806F26D111E0B5F502
:10597000805F16D0B5F5005F17D0B5F5804F1CD10C
:1059800017E0E069FBF786FF18E0206AFBF782FF6B
:1059900014E0606AFBF77EFF10E0A06AFBF77AFF75
:1059A0000CE0E06AFBF776FF08E0206BFBF772FF84
:1059B00004E0606BFBF76EFF00E000BF00BF2068F3
:1059C000C068A8432168C860002070BD2DE9F0417F
:1059D0000446884616461F46069D94F8390002285C
:1059E00001D1BDE8F08194F83900012805D10FB943
:1059F00005B1F6E7022084F83900B6F5006F47D00C
:105A000009DCB6F5807F10D0B6F5007F1ED0B6F564
:105A1000806F70D12BE0B6F5805F4AD0B6F5005F9D
:105A200058D0B6F5804F78D166E07E48E16988624B
:105A30007D48E1690863012202EB1523226802F127
:105A40004C013A46E069FBF7EAFE67E07A49206AD2
:105A500081627549206A0163012202EB15232268E5
:105A600002F14C013A46206AFBF7D9FE56E0724932
:105A7000606A81626C49606A0163012202EB15234E
:105A8000226802F14C013A46606AFBF7C8FE45E025
:105A90006949A06A81626449A06A0163012202EB3C
:105AA0001523226802F14C013A46A06AFBF7B7FEC3
:105AB00034E06149E06A81625B49E06A0163012286
:105AC00002EB1523226802F14C013A46E06AFBF72B
:105AD000A6FE23E05649206B81625349206B016387
